{
  "contractName": "Mortal",
  "abi": [
    {
      "inputs": [],
      "stateMutability": "nonpayable",
      "type": "constructor"
    },
    {
      "inputs": [],
      "name": "kill",
      "outputs": [],
      "stateMutability": "payable",
      "type": "function"
    }
  ],
  "bytecode": "0x608060405234801561001057600080fd5b50336000806101000a81548173ffffffffffffffffffffffffffffffffffffffff021916908373ffffffffffffffffffffffffffffffffffffffff16021790555060ed8061005f6000396000f3fe608060405260043610601c5760003560e01c806341c0e1b5146021575b600080fd5b60276029565b005b60008054906101000a900473ffffffffffffffffffffffffffffffffffffffff1673ffffffffffffffffffffffffffffffffffffffff163373ffffffffffffffffffffffffffffffffffffffff16141560b55760008054906101000a900473ffffffffffffffffffffffffffffffffffffffff1673ffffffffffffffffffffffffffffffffffffffff16ff5b56fea2646970667358221220f9d1e6cebe04fce3fdf61748c6459d17343514bb5b5795ac6ea75d50da1a58d464736f6c634300080b0033",
  "immutableReferences": {},
  "source": "// SPDX-License-Identifier: GPL-3.0\n\npragma solidity >=0.7.0 <0.9.0;\n\ncontract Mortal {\n    /* Define variable owner of the type address */\n    address payable owner;\n    /* This function is executed at initialization and sets the owner of the contract */\n    constructor ()  { owner = payable(msg.sender); }\n    /* Function to recover the funds on the contract */\n    function kill() public payable { if (msg.sender == owner) selfdestruct(owner); }\n}\n\ncontract KlaytnGreeter is Mortal {\n    /* Define variable greeting of the type string */\n    string greeting;\n    /* This runs when the contract is executed */\n    constructor (string memory _greeting) {\n        greeting = _greeting;\n    }\n    /* Main function */\n    function greet() public view returns (string memory) {\n        return greeting;\n    }\n}",
  "sourcePath": "/home/thanhthanh/Documents/Can/graph/deployToKlaytn/contracts/klaytndemo.sol",
  "compiler": {
    "name": "solc",
    "version": "0.8.11+commit.d7f03943.Emscripten.clang"
  },
  "schemaVersion": "3.4.5",
  "updatedAt": "2022-05-11T04:51:34.576Z",
  "devdoc": {
    "kind": "dev",
    "methods": {},
    "version": 1
  },
  "userdoc": {
    "kind": "user",
    "methods": {},
    "version": 1
  }
}